:020000041000EA
:4000000000F00308811A00100D000000F51A0010F51A0010F51A0010F51A001000000000000000000000000000000000F11A0010F11A001000000000F11A0010F11A001025
:40004000F11A0010F11A0010F11A0010F11A0010F11A0010F11A0010F11A0010F11A0010F11A0010F11A0010F11A0010F11A0010F11A0010F11A0010F11A0010F11A0010D0
:40008000F11A0010F11A0010F11A0010F11A0010F11A0010F11A0010F11A0010F11A0010F11A0010F11A0010F11A0010F11A0010F11A0010F11A0010F11A0010F11A001090
:4000C000F11A0010F11A0010F11A0010F11A0010F11A0010F11A0010F11A0010F11A0010F11A0010F11A0010F11A0010F11A0010F11A0010F11A0010F11A0010F11A001050
:40010000F11A0010F11A0010F11A0010F11A0010F11A0010F11A0010F11A0010F11A0010F11A0010F11A0010F11A0010F11A0010F11A0010F11A0010F11A0010F11A00100F
:40014000F11A0010F11A0010F11A0010F11A0010F11A0010F11A0010F11A0010F11A0010F11A0010F11A0010F11A0010F11A0010F11A0010F11A0010F11A0010F11A0010CF
:40018000F11A0010F11A0010F11A0010F11A0010F11A0010F11A0010F11A0010F11A0010F11A0010F11A0010F11A0010F11A0010F11A0010F11A0010F11A0010F11A00108F
:4001C000F11A0010F11A0010F11A0010F11A0010F11A0010F11A0010F11A0010F11A0010F11A0010F11A0010F11A0010F11A0010F11A0010F11A0010F11A0010F11A00104F
:40020000F11A0010F11A0010F11A0010F11A0010F11A0010F11A0010F11A0010F11A0010F11A0010F11A0010F11A0010F11A0010F11A0010F11A0010F11A0010F11A00100E
:40024000F11A0010F11A0010F11A0010F11A0010F11A0010F11A0010F11A0010F11A0010F11A0010F11A0010F11A0010F11A0010F11A0010F11A0010F11A0010F11A0010CE
:40028000F11A0010F11A0010F11A0010F11A0010F11A0010F11A0010F11A0010F11A0010F11A0010F11A0010F11A0010F11A0010F11A0010F11A0010F11A0010F11A00108E
:4002C000F11A0010F11A0010F11A0010F11A0010F11A0010F11A0010F11A0010F11A001010B5054C237833B9044B13B10448AFF300800123237010BD9C0C000800000000D4
:40030000442E001008B5034B1BB103490348AFF3008008BD00000000A00C0008442E001008B5084B1B7823B100F0C6F900F0E0FC08BD01F09FF901F0EDF9024B01221A709F
:40034000F2E700BFB80C000810B5FFF7E9FF044650B16CB100F004FB0028FBD100F0A4F800F06CF8204610BD00F00CFC0446F0E700F044FB0446EDE770B50E4E00252C469A
:400380000CB1284670BD630904330B4A52F8233004F01F02D34013F0010F02D120360134EEE7304600F0DAF905463146204600F031FAF3E7342B00107C0E0008C9B20629E1
:4003C00002D083180021197130F8121000EB42035980104400230372704770B505460C4601235E1E03B970BD324621462846FFF7E5FF3346F5E7000008B5064B03EB4013D9
:400400009A6801EB8100997E02EB4000FFF7E5FF08BD00BF342B001038B50546064B03EB40131B8B5C1E2BB121462846FFF7E4FF2346F7E738BD00BF342B001010B5012375
:400440005C1E03B910BD2046FFF7E6FF2346F7E72DE9F04107460E4B03EB4013D3F804801B8B5C1E93B10A4B03EB47139D6804EB8406DB6904EB440203EB8202B8F810103A
:4004800035F8160002F084F92346EAE7BDE8F081342B001010B501235C1E03B910BD2046FFF7D6FF2346F7E708B5FFF7F3FF08BD9840C2F5807301FB03F102FB0010000A74
:4004C00070472DE9F04106460C46174601235D1E13B90020BDE8F08134F8150004EB45035988884226D3431A62194FF0000C82F808C04FF0010C32799A4205D272799A4270
:4005000016D3BCF1000F13D1FBB2062B10D004EB050898F804C0082301224CEA0121FFF7C7FFC0F30F2204EB45035A8088F804002B46CCE70B1A72799A420ED263191B7A48
:40054000327A934203D2621901331372F0E72A4639462046FFF732FFEAE74FF0000CCAE70E4B1A780E4B03EB42135B680D4AD2F8D02091B2188801238340013B994206D2BD
:40058000094B1B680949097823F811207047064A12680649097822F811307047BB0C0008342B001000003640740E0008D62A001038B520490A78204B03EB421250680A78D5
:4005C00003EB42131A7E013A1C4B1B78DBB29A421AD91A4C23780133DBB223700D460A78154B03EB42139A68237803EB830359001144134A116000F059FD2878217800F0C6
:4006000073FE00F0BDFD38BD0C4B00221A704FF4803000F0B9F90B4B1B78012B07D0802000F0B2F9084A138901331381EBE700F015FAE8E7BB0C0008342B0010BA0C000889
:40064000740E0008B90C00087C0E000808B5074B4FF483721A601B68FFF782FF044A138901331381034800F08FF908BDF00036407C0E00088000010010B50B4B1B785B0119
:400680000A4AD4580A4B1B7804EBC304094B4FF483721A601B68FFF763FF204600F034FEFFF786FF10BD00BFBB0C0008342B0010BA0C0008F000364070B5002313B1124CD0
:4006C000012315E0114A191D02EB8100002444604FF0FF3042F821000133EFE76668A27E0A4B2B4400211976012A05D020342B465D1E002BF2D170BD20690028F6D0228B66
:40070000F17902F0D1F8F1E7342B00107C0E000810B582B00446084613466288ADF80020228A694602F018F8BDF8003063809DF8023023719DF8033063719DF80430A3712B
:4007400002B010BD30B40B884A889C1A0025CD800079A04200DACC8030BC70472DE9F04781468468476890F81AA0C6690025A846B9F81830AB4217D93246398A208802F087
:4007800013F82A4631463846FFF7C2FF0C36524621463846FFF795FE804621463846FFF7D1FF0A340135E3E74046BDE8F087F0B40C8B8D684F680A6901230FE07988BE79D4
:4007C000891B14E0194616E020EA03000843E9B9F97911705B000A350132644604F1FF3CB4B110EA0304E9D17988BE793144EE888E42E7D800218C4202D01678013E167092
:400800008C42E1D01478002CE4D1DDE70121E0E7F0BC704738B504468A7E154B03441D7E012A17D040F22641124801F0CBFE104B23441D76630904F01F04012000FA04F491
:400840006DB904330A4A02EB83035A6822EA04045C6038BD2846FFF7AAFF0546E7E70433034A02EB83035A6814435C60F1E700BF7C0E00087C2A00109F2811D940F2FE33E8
:4008800099420DD903F5800303F60743A3FB0123CA1A03EB52035B0AC3EB832399422FD09F280DD9B1F5FF7F0AD91B4BA3FB0123CA1A03EB52031B0AC3EB4323994221D035
:4008C0009F280CD97E290AD9144BA3FB0123CA1A03EB52039B09C3EBC313994214D09F2814D93E2914D90E4BA3FB0123CA1A03EB52035B09C3EB831399420BD00020704714
:4009000004207047032070470220704700207047002070470120704721408000110804020541100410B44A1ED2B2032A0DD8102489B18CB1642202FB04F2B2FBF0F30024AF
:40094000092B04D801345B00FAE70024F0E70A2B02D9013C00E00024E0B25DF8044B7047024BD86800F08000704700BF7C0E0008034A02400349CB681343CB60704700BFB3
:40098000800001007C0E0008034A02400349CB6823EA0203CB607047800001007C0E00080E4BDB6813F4803F13D110B5044690B943090433094A52F8233000F01F02D340DA
:4009C00013F0010F01D1012006E000F009FD204602E011207047012010BD00BF7C0E000810B5054BDC6814F4803402D01124204610BD00F045FCFAE77C0E000810B50B4B98
:400A0000DC6814F080040FD14FF0FF3004B110BD2046FFF7C5FF08B10134F7E7044B00221A70FFF7DDFFF2E71120F0E77C0E0008B90C000830B583B00025074C0DB103B020
:400A400030BD002300930E222179206801F0BEF908340135F2E700BF542B00107047000010B50146114BB3F90030002B0CDB03F01F005B090122824020330D4840F82320B5
:400A8000BFF34F8FBFF36F8F084C204601F054FDB4F90030002B07DB03F01F015B0901228A40034941F8232010BD00BF742B001000E100E070B5002510E06B01094AD658C1
:400AC0002C4604E006EBC40000F01EFC0134054B03EB45131B7EA342F4D80135002DECD070BD00BF342B0010024B03EB40135B6858897047342B0010024B03EB40135B68A9
:400B000059817047342B0010C0EB0032012303FA01F101398A4205D9C0EB0020814203D30520704706207047002070472DE9F04180460E46FFF7D8FF05460022318800F0A9
:400B4000DDFA01462846FFF797FE074620B931886800FFF7D9FF074639462846FFF7E2FE04467B1FDBB2012B06D92401E4B244EA07003073BDE8F08129464046FFF7BCFF6E
:400B8000F3E70000F0B589B04FF47A73ADF8003040F65503ADF802304FF41663ADF80430444B1A7F4CF25033B3FBF2F3ADF80C3000252E4645B10024002C4BD00024002CD7
:400BC0006AD0304609B0F0BD3B4B03EB45135C680C23238000232373BDF80C30374AA2FB03235B09274627F80A3F5521284600F0BDFC0497324B1B788DF81830314B1B8832
:400C00004FF47A7202FB03F22F4BA3FB0213D21A03EB5203C3F3CF23ADF80E30684601F043FD2A4B984203D9062601E05B006381BDF80C10638941F2707202FB03F29142BF
:400C4000F4D8032BF2D908AB03EB850343F8040C0135AFE7184B03EB44135D685521204600F084FC064305F10A03049308AB03EB840353F8043C0293114B1B788DF81830CF
:400C8000EB89ADF8063005F110030593684601F031FD288001348FE7074B03EB441359682046FFF743FF5521204600F05FFC0643013484E77C0E0008342B0010F119760598
:400CC000E0020008E202000801011000870D010010B5002404B110BD044B03EB441359682046FFF723FF0134F4E700BF342B001008B5FFF7EDFFFFF79DFE00F035F900208D
:400D000008BD000038B5114D2A689369104CE31ADB09526902EB03135A6822F0F8525A60802363602B6893F87920135923F0704343F0C0431351012001F038FC2B6893F8F5
:400D40007920135923F07043135138BDBC0E00088003324001390143014B1960704700BF000236400E4B1B6823F4F8730D4A117F0D4AB2FBF1F20D498A4204D843F02003D7
:400D8000074A136070470A498A4204D843F03003034A1360704743F04003014A13607047E40200087C0E000880F0FA02001BB70000366E01044B054A1A6003F580734FF050
:400DC000C1721A60704700BF0004364000008301084A136803F07F0343F0C17343F48033136002F58072136803F07F0343F400031360704700043640074A136843F0805343
:400E000043F001031360054B054A1A6003F580734FF0C1721A607047A8023640000436400000830110B4038801209840013800EB80035B000C4CA4FB03435B0901335C18B0
:400E4000844200D904468B4208D8C91A914209D8944205D300205DF8044B70470021F5E70620F8E70620F6E71F85EB510023154A136002F592721360043213602C3A06219E
:400E80001160083A4FF480711160903A01211160A2F580724FF48371116012680A4A13600A4B03221A604FF4FA63094A126812F0040F02D10BB1013BF7E713B9034B0822A8
:400EC0001A6070478C013640F800364040033640F00036401D4B4FF483721A601B681C4BB3F90030002B07DB03F01F015B0901228A40184941F823200023174A13603032AA
:400F00001360043213602C3A1360983A50211160643A012111600C3A13608032136843F0807313600D4B02221A604FF4FA630C4AD2F8842012F0070F02D00BB1013BF6E73F
:400F4000084B40F201321A60704700BFF0003640742B001000E100E080023640F8003640000036404003364070B5FFF7A3FDFFF7C9FE414B4FF480321A604048036843F0C5
:400F8000805343F00103036000233D4A136002F5E07213600C32136060321360A2F5CE72136002F582721360083A1360354C2360A2F58072136002F5A8724FF0487111605E
:400FC000314D2A6892F87960304AB15821F07041B15029688D69521BD209496901EB0212516821F0F85141F08061516028490A6842F480520A60274A4FF48071116002680C
:4010000042F0805242F0010202604FF0807222490A60A1F58E7140F64130086001F584710B602260FFF7C6FE1C4B1B7F013BFF2B0BD8154A12689068B2F87010425822F4E4
:401040007F421B029BB213434350FFF78BFE144B1B6843F0004343F48053124A1360124B0F221A60A3F5887300221A6003F590730A221A6070BD00BF04023640A80236404C
:40108000F400364084023640BC0E00088003324094023640A0023640A40236407C0E0008E4020008000036400003364038B5044601F0F3FA0D490A6822F07F020C4B1D78F8
:4010C0002C44637A13430B6001F0EBFA01F0E5FA08490A6822F07F02074B1B682B445B7A13430B6001F0DDFA38BD00BF00043640D62A001000053640740E000830B40124F8
:401100008C40631E28B10F290BD9A4F10A03B3FBF0F3053A012A07D903B90123184630BC7047B3FBF0F3F4E75B08F5E708B50C4B1A780C4B03EB42135B6859891B7B1804CD
:40114000053B012B04D9012B05D9FFF703FE08BD40F00070F7E74908F7D10121F5E700BFBB0C0008342B001008B5027B01884089FFF7C4FF80B2014B186008BD1403364041
:4011800008B50D4BB3F90030002B0CDB03F01F015B0901228A402033084941F82320BFF34F8FBFF36F8F064B01221A60FFF75EFEFFF790FE08BD00BF742B001000E100E0B0
:4011C0008001364008B50448FFF7D2FB172001F0EDF9FFF7D5FF08BD80000100F8B5054601F05BFA06462F682C79072C2BD8A400214B1B6893F87910CB590F22A24023EA27
:401200000203062202FA04F42343CB512C682D79072D1ED8184B1A689369E31ADB095269190102EB0313032D19D85358EC001F20A04023EA00030B25A5401D435550304696
:4012400001F02FFAF8BD40F2CE310C4801F0BAF9CDE740F29221094801F0B4F9DAE7043D5A68ED001F21A94022EA01020B2101FA05F515435D60E2E7BC0E0008D82A001022
:4012800070B5134E3278134D05EB4212124C00232370337805EB43139968237803EB8303580008440D4908605068FFF7FFFE33785B01E858237800EBC300094B1860FFF7E6
:4012C0008DFF0848FFF7CCFBFFF77CFF70BD00BFBB0C0008342B0010BA0C0008740E0008780E00087906001008B54001044B185800EBC100034B1860FFF770FF08BD00BF2D
:40130000342B0010780E0008F8B5044601F0C5F9074625682679072E2FD8264B1A689369EB1ADB095269190102EB0313032E2AD85358F0001F26864023EA0606565026687F
:401340002579072D29D8AD001A4B1B6893F879108B590F22AA4023EA02030E2202FA05F52B438B5125682479072C1CD80123A3406B60384601F095F9F8BD40F292210E4860
:4013800001F020F9C9E7043E5A68F6001F2101FA06F622EA06065E60D1E740F2CE31064801F010F9CFE740F28B31034801F00AF9DCE700BFBC0E0008D82A001008B5064BE4
:4013C0001B78012B00D008BD044B1868FFF79CFF014B00221A70F6E7BC0C0008780E000870B50E4E06EB40135D68C0B20C4C2070FFF7E4FF23785B01F2580A4B1A600A4BE4
:40140000DA6822F07F02DA602278D9680A43DA602846FFF7A9FEFFF789FE70BD342B0010BB0C0008780E00087C0E000838B5114B03EB40135D68C9B20F4C21709A682378D5
:4014400003EB830302EB43030C4A1360FFF7C8FF2846FFF72BFE2278094B186800EBC2001860FFF7BBFE074B01221A700648FFF7F7FA38BD342B0010BA0C0008740E000880
:40148000780E0008BC0C00084D0600102DE9F84307460E4691462C4A11782C4B03EB4113D3F80480002434701078294B1978FFF7BDFFFFF78DFC802503E0264B1B681C88F5
:4014C000D5B1BC4203D2337823EA050333706D08EBB23278134333704046FFF7E7FDFFF771FE4CF6C4431C4CE46814F0800FE4D0002BE2D0013BF6E7134B1B785B01134AD2
:40150000D058134B1B7800EBC300144B1860FFF7FBFE134B00221A70FFF76EFC224639464046FFF77FFC99F8002033789A4205D289F800300B4A13700B4B1C80054B1B6879
:4015400032785A72BDE8F883BB0C0008342B0010BA0C0008740E00087C0E0008780E0008BC0C0008E0020008E20200082DE9F04383B004460F46374B03EB40135E680125AF
:401580008DF80450B14639F8098B05FA08F808F1FF3801FB08F8304BA3FB08384FEA5818C2B22E4B1A702E48FFF75AFA2D4B1D702D4B1D8000252D4B1D70264B03EB441338
:4015C000DA7E2A4B1B78DBB29A420BD901AA49464046FFF75BFF0543244A13780133DBB21370EAE79DF8043001335B0873721F4B0021197006E000234B721C490B7801339D
:40160000DBB20B70194B1B78DBB29A421BD9114B03EB44139968154B1B7803EB830301EB4301134B19604B7A707A8342E3D31B1ADBB207FB03F363330748A0FB0303C3F31E
:4016400047134B72D9E7094B00221A70284603B0BDE8F083342B00101F85EB51BB0C00084D060010E0020008E2020008BA0C0008740E000870B51B4D3C220021284601F040
:4016800013F92B1F40F2944225F8042C4FF4106225F8022C41F66A029A800822EA8201242C76114E0FCEC5F81A00C5F81E10C5F82220C5F8263033886B850C490C4D234693
:4016C0000CE0AA682B8B04E011F8013B53720A320346581E002BF7D1203523465C1E002BEFD170BD800E0008602B00105C2B0010342B0010012300205A1E03B97047111D76
:40170000034B03EB81035B6818431346F4E700BF7C0E00080023024AD380024A136070477C0E0008D00C0008134B1B6893F83D20332A03D99A680021C2F8CC1C9968B3F825
:4017400070208B5823F47F4343F47E438B500A4B1A6892F86F1003238B4092F86C1092F86E0081400B43916843F00043C1F800349368D3F800347047BC0E00080323044A19
:40178000136004321360034B034A1A60704700BF10203140000E1F410100118010B58AB0FFF7C2FF20242246002102A801F07CF88023019301A9094800F090FA224600211A
:4017C00002A801F071F80123019301A9044800F085FAFFF7D3FF0AB010BD00BF800332400005324000B583B062B6002300930E2204210E4800F0EAFAFFF7D0FFFEF7A4FDBE
:40180000FFF7FCF804E0094B10225A60FFF7F6F8FFF7A6F80028FBD1FEF7AEFDFFF76AFF0028F0D0014B10229A60EFE70006324008B5012000F058FD08BD704730B4654B4E
:40184000D3F8802302F00F0202F1D00153F8213003F00703042B17D8DFE803F00316160508005D4B11E05D4B1B680EE002F1C003584951F8233003F01F03112B1DD0132B65
:401880001ED14FF4004300E0554BB2BB514AD2F8900500F00100D2F88815C1F30171D2F8882512F0405F0ED04A4AD2F88825C2F30172012A08D0002206E04FF40043E4E7C9
:4018C0004FF4FA43E1E7012202B108B9032917D1404AD2F88015C1F31101D2F88405C0F30C00D2F88025C2F300620132B3FBF0F301FB03F3B3FBF2F302E0013A012A32D912
:40190000344AD2F88023C2F30112D340354A1360354AD2F89010C1F3072101311269120E0132B3FBF2F231480260B3FBF1F3304A1360304A136003F5742202F23F222E49F7
:40194000A1FB0212C2F387422C490A7003F2E7332B4AA2FB03239B092A4A1360DB032A4A136030BC70471B4902F5C87051F8204004F0010402F5C07551F82500C0F301701D
:4019800051F8251011F0405F09D02946114D55F82110C1F30171012902D0002100E0012101B10CB90328ABD10A4C02F5C07254F8221001F07F0154F82200C0F3042054F883
:4019C0002220C2F3044201FB03F3B3FBF0F3B3FBF2F395E70000264000127A00EC02000800366E01F002000800002140F4020008E8020008FC02000883DE1B43040300086C
:401A0000D34D621000030008F802000808B50D4800F07EF8FFF711FFFFF710FF00221146032000F0D1FC084800F0A4FA074B1B6893F84D3013B900F049F908BD044800F071
:401A400013FBF8E7B02B0010D40C0008BC0E00087C2B001008B500F020FE074AD2F8883043F47003C2F88830BFF34F8FBFF36F8F00F017FE08BD00BF00ED00E0704770475F
:401A8000FFF7FCFF72B6144C144DAC4209DA21686268A368043BA2BFC858D050FAE70C34F3E70F490F4A00209142BCBF41F8040BFAE70D480D490860BFF34F8FFFF7CAFF98
:401AC000FFF7A4FFFFF7DBFF00F0CAFEFFF78AFE00F0B0FEFEE70000482E0010602E00109C0C0008E40E00080000000808ED00E0FEE7FEE700B504207146084202D0EFF3C1
:401B0000098001E0EFF30880043000F06BFDFEE7014B1860704700BFBC0E0008B0F1204F3CD018D880283BD007D9B0F5807F3FD0244B984209D024487047102832D040281B
:401B400001D12248704700282ED170474FF4A40070471D4870471E4B98422BD02DD31D4B98422CD8B0F1704F12D900F1805001380428EED801A353F820F000BF4D1B0010E9
:401B8000531B0010AD1B0010951B0010991B00100D4870471048704710487047002070470F4870470F487047074870470E487047044870474FF4A000704703487047024832
:401BC000C3E700BF06005200FF00520002005000090000A0050000F0020052000300520005005200010050000100520038B5134B1B6893F82E30012B17D9104B1D682B6AF7
:401C0000B5F8AC2013442C46D5F8B020D358002B11DB0B4B1868FFF781FF6B6801229A6063689B68002BFBD138BD4FF4E971054800F0C8FCE1E70448F6E700BFBC0E00086D
:401C4000540E0008642C0010020050001A4B186028B102230370FF23437000234380174B1B6893F84C2002B9704700B583B0B3F93630ADF80030002301931149684600F033
:401C80005BFCBDF90030002B07DB03F01F015B0901228A400B4941F82320084B1B6893F84D3013B903B05DF804FB02220649012000F08AFAF6E700BF640E0008BC0E000805
:401CC000AD07000800E100E06908000808B50248FFF7BCFF08BD00BFF80B000800286AD0F8B50C460546002967D00B6833F0FF0343D1236933F0FF0344D1A3685B0D5B0556
:401D0000002B44D1636823F4FF7323F00103002B42D1E36913F0604F43D1236A13F0604F44D1274B19688A69AA1AD2094969100101EB021226682E601E6896F87960E768B4
:401D4000AF511E6896F87A602769AF511E6896F87B606769AF511E6896F87860A768AF516668AE611B6893F87C30A669EE50E3690B50236A53600020F8BDA321114800F07E
:401D800021FCB6E7A4210F4800F01CFCB5E7A5210C4800F017FCB5E7A6210A4800F012FCB7E7A721074800F00DFCB6E7A821054800F008FCB5E7044870470348DCE700BF18
:401DC000BC0E0008C42C001001005A002DE9F04104460D4616461F469DF8188007293ED836F00F0340D1012F43D838F01F0345D123680122AA4023EA020307F00107AF4012
:401E00001F4327602D4B1B6893F879100B59A8000F22824023EA020306F00F0686401E430E51072D2FD838F01F0332D1234B1B689869241AE4095B69200103EB0414032D48
:401E40002DD81A58ED001F24AC4022EA040208F01F0808FA05F515431D50BDE8F081E321174800F0AFFBBBE7E421154800F0AAFBB9E7E521124800F0A5FBB6E7E6211048A5
:401E800000F0A0FBB4E740F292210E4800F09AFBC9E740F293210B4800F094FBC6E7043D6368ED001F22AA4023EA020308F01F0808FA05F51D436560CFE700BFBC0E00086A
:401EC000C42C0010D82A001038B50C4B1B68D3F8B0301B58002B0EDA05460C460B0C1B041BB9A4B26C60002038BD4FF43971044800F068FBF5E70348F6E700BFBC0E0008D9
:401F0000642C001001008A0038B50368002B0FDA05460C46C2600B0C1B041BB9A4B2AC60002038BD40F2CA21024800F04BFBF5E70148F6E7642C001001008A0038B50446C9
:401F40000D4651B1084B1B68D3F8B0301B59002B08DAE3682B60002038BDA321034800F031FBEFE70248F7E7BC0E0008202D001001008A00034B1B6803B17047014B18603C
:401F8000FBE700BF680E00082DE9F84304460F4690461D46DDF820902F4B1B68002B3ED02D4B1A682C2303FB04F01418EEB21650C5F3072363602D0CA560284B1B6893F84D
:401FC0002E309E4230D2254B1A68136AB2F8AC1001FB06332361666892F82F309E4229D21E4B1B681D6A803605EB46156561A668330C1B0423BB330C1B043BBBB3B243EA17
:402000000646AE60C4F81C8027620023A361B9F1000F02D0B9F90030A381BDE8F883BF210F4800F0CFFABBE74FF4E9710D4800F0C9FAC8E74FF4F7710A4800F0C3FACFE747
:4020400040F20D21074800F0BDFAD4E740F20E21044800F0B7FAD1E7680E0008BC0E0008802D0010642C0010F0B58FB0044600283FD0A369072B41D8E36A002B43D0236BC7
:40208000002B45D007AD04F114060FCE0FC537682F6002AD26460FCE0FC533682B601F4B1B689B8E079A1344ADF83030089B0D930CAD00953B46A26AE16A0A98FFF764FFD5
:4020C00000210091069B0A460598FFF75DFF216B284600F031FABDF93030002B07DB03F01F015B0901228A400D4941F823200FB0F0BD5C210B4800F065FABAE760210948E2
:4021000000F060FAB8E76221064800F05BFAB6E76321044800F056FAB4E700BFBC0E000800E100E0802D0010F8B507460C461D4616463AB31F4B1B6853B31E4B19682C2226
:4021400002FB071002FB04114A68012404FA02F2120443689C40036933B38F6937BB1B68002B25DA33881A4332600369DE6001238B614D620569230C1B047BB9A4B2AC6085
:402180003846F8BD40F207110B4800F01BFAD1E74FF48471084800F015FACEE740F2CA21064800F00FFAE9E7054FE9E7054FE7E7044FE5E7680E0008802D0010642C0010E2
:4021C00004028A0007028A0070B504460E4615460F4B1B6873B10E4B18682C2303FB0404236A6BB1E369AB4210D9236A43F82560002070BD4FF4B471064800F0E3F9EAE7B7
:402200004FF4B671034800F0DDF9EBE70248F0E7680E0008802D00100A028A0070B582B000230193044680B12369A3B16369C3B1236AE3B16369DD682A0C1ED1ADB2002DD3
:402240003DD163691B6802B070BD40F2DB11244800F0B8F9E8E74FF4EE71214800F0B2F9E4E740F2DD111E4800F0ACF9E0E74FF4EF711B4800F0A6F9DCE712041A601B686A
:402280002069184B1B68D3F8B0301B58002BD5DA01A9FFF753FE60B9019803681E0CDBB2E2699A4206D9226A52F8233013B1984700E0002631462069FFF706FEBEE76369AF
:4022C0001D601B68636A2BB19847002363620023A361B6E7A36A002BF9D09847F7E700BF802D0010BC0E000810B50446084B1B683BB1074B1B682C2000FB0430FFF78EFFFA
:4023000010BD40F2BB11034800F05CF9F1E700BF680E0008802D0010264B1B6893F82E30834242D970B504460D4600293FD00B6813F01F0F01D0204870BD1E4B1B6893F838
:402340002E3098421CD21B4B1B68186AB3F8AC3003FB0404194E34602A68D2080021686800F0A2FA00212046FFF7AEFD34686DB12A4600212046FFF7C7FD68B11048DBE795
:402380004FF4E9710F4800F01DF9DCE740F2A2310C4800F017F9EBE70021084B1868FFF793FD0028C8D00648C6E7034870470248C2E700BFBC0E000803018A006C0E00086A
:4023C00001018A00642C001038B505460C4613461AB113B3D4B9124838BD0029F9D1114B1B6893F82E3098420AD20E4B1B681A6AB3F8AC0000FB05200B4B18602046EBE713
:402400004FF4E971094800F0DDF8EEE708490C604B602846FFF780FFDEE70148DCE700BF03018A00BC0E00086C0E0008642C0010FC0B00082DE9F041194B1B68DD682B68A2
:4024400083422BD90C46460900F01F00012303FA00F8B9B10027124B18680368002B17DA6A6852F8263013EA080F0FD023EA080342F8263000250021FFF726FD54B12846F6
:40248000BDE8F08100F009F90746E4E7054DF2E7054DF3E7384600F004F9F0E7034DEEE76C0E0008020188000301880004018A000B4B1B68DB681A6882420CD9410900F095
:4024C0001F00012202FA00F05B6853F82130034203D004487047044870470448704700BF6C0E00080101880004018A000001880038B504460C4B9A680C4B9A4204D0103470
:402500000B4B53F8240038BD0D4631B11034074B53F8240043F82450F5E740F24111054800F050F8F2E700BF00ED00E00000000800000010E02D001060B338B50D460446DC
:402540004368072B13D8B4F900306268002B13DB5201D2B203F1604303F5614383F800230D4B9A680D4B9A420DD0002038BD3C210B4800F027F8E6E703F00F035201D2B243
:402580000849CA54ECE72946B4F90000FFF7B0FF0020EBE70448704700ED00E000000008E02D001014ED00E00100560008B5034B1B7800FB03F000F067F808BD040300084A
:4025C00001BEFEE738B50C46044D18220146284600F0BAF9AC610020FFF7F2FF080C0008FEE7000008B50268254BDA6142681A6282685A62C2689A620269DA6242691A636D
:4026000082695A63C2699A631E4A916AD963D16A1964516A5964516B9964926BDA64F1EE103A13F0900F27D0026A154B1A65426A5A65826A9A65C26ADA65026B1A66426B9F
:402640005A66826B9A66C26BDA66026C1A67426C5A67826C9A67C26CDA67026DC3F88020426DC3F88420826DC3F88820C26DC3F88C20026EC3F89020FFF7B2FF08BD00BFBE
:40268000080C000800ED00E00230800803D001300238FCD100BF00BF7047EFF3108072B6704780F310887047014670B582890569CB8980884FF47A76584306FB00F4288870
:4026C000B2FBF0F0B4FBF0F00C7E4B886043B0FBF3F00B884343B3FBF6F35A43044BB2FBF3F3012213B15B085200FBE72A8070BD00E1F505014643888A88007EC3EB03433B
:402700005043B3FBF0F00B698A891B88B2FBF3F3104A4343B3FBF2F3CA8853430A22B3FBF2F38A6846F2A710824294BF6422C8221020934205D90138C0B206284FEA5303EE
:40274000F7D149694B2253436422B3FBF2F30B80704700BFA086010003B10B880088800080B2824238BF02469A4238BF1A4692B25308FF2B0A804FEAD2028CBFFF23DBB28A
:40278000FF2A8B70CB7086BFFF230B710A7170478B0813800F23C9089372002351809080D0801081D3727047937A30B5948890805B00041BDBB24ABF013393729372957A1B
:4027C000538848BF644205F00F05A342957203D9012B03D9013B00E0013353800F2D04D01DB15388B4EB830F04D90023D0801081D37230BDD488844201D9D08003E014898C
:40280000844238BF1081D07A092802D80130D07230BD1089D488001B80B2834204D9B3EB910F03D9013B00E0013353805388138030BD000038B5084B084D5B1B9C1007D08B
:40284000043B1D44013C55F804399847002CF9D1BDE8384000F00CB9400700083C07000870B50D4E0D4D761BB61006D0002455F8043B01349847A642F9D1094E094D761BF5
:4028800000F0F0F8B61006D0002455F8043B01349847A642F9D170BD34070008340700083C07000834070008F0B4860746D0541E002A3CD0CAB2034601E0013C37D303F816
:4028C000012B9D07F9D1032C2AD9CDB245EA05250F2C45EA054534D9A4F1100222F00F0C03F120071609674403F1100242E9045542E902551032BA42F8D1721C14F00C0FFA
:4029000003EB021204F00F0613D0331F23F003030433134442F8045B9342FBD106F003042CB1CAB21C4403F8012B9C42FBD1F0BC704734461346002CF3D1F8E71446034647
:40294000C1E71A462646E0E770B440EA0104A30701D1032A0FD804464D1E07E015F8011F03F8011B561EC9B11C4632462346002AF4D170BC70470B460446194653F8046BA2
:40298000A6F1013525EA060515F0803FE4D1043A032A44F8046B1946EFD8DDE72244002EE7D003F8011B9342FBD170BC704700BF024B13B1024800F005B870470000000053
:4029C00035280010002301461A46184600F004B8704700BF704700BF2DE9F047DFF880A00646DAF8000098460F469146FFF7F0FF1A4B1B68D3F8484124B365681F2D26DC2B
:402A00005EB9AB1C0135DAF80000656044F82370FFF7E0FF0020BDE8F08704EB85030121C3F88890D4F88821A9400A43022EC4F88821C3F80881E4D1D4F88C311943C4F8C5
:402A40008C11DEE703F5A674C3F84841D5E7DAF80000FFF7BFFF4FF0FF30DCE7402E001030070008F8B500BFF8BC08BC9E467047F8B500BFF8BC08BC9E4670472F566F6C10
:402A8000756D65732F446174612F5653636F64652F4749542F43617073656E73655F6578616D706C652F736F757263652F554442636F6E6669672F43617053656E73652FD1
:402AC00043617053656E73655F50726F63657373696E672E630000002F566F6C756D65732F446174612F5653636F64652F4749542F5653436F64655F4F6E657468696E786F
:402B00005061636B5F6D61634F532F50444C5F312E332E312E313439392F647269766572732F696E636C7564652F63795F6770696F2E6800542B00109A0E0008AC0E00088F
:402B400000000000C00C00080128000001000101C40C00080005324000000000200000000C00640028280A031E2004000000A00000000000310000000700000003000000FC
:402B800001000000010000000000000005036000040000000100000000000000010000000604600008000000340E0008311800100000214000002540000001400000344015
:402BC00000002440000031400000324000001F41000023400000114010101010101010101010800019005500F0000501053B04101C0101000FC000000004000001010101AD
:402C0000011D3A57789600082000101208000000001F00000010000F002000023F06080E00080009000A000B24282C30340000001000000090000000880000000800000098
:402C40008000000004F0000000F00000400200002005A000D00100018001A00120000000100000002F566F6C756D65732F446174612F5653636F64652F4749542F56534361
:402C80006F64655F4F6E657468696E785061636B5F6D61634F532F50444C5F312E332E312E313439392F647269766572732F696E636C7564652F63795F6970635F64727689
:402CC0002E6800002F566F6C756D65732F446174612F5653636F64652F4749542F5653436F64655F4F6E657468696E785061636B5F6D61634F532F50444C5F312E332E31E6
:402D00002E313439392F647269766572732F736F757263652F63795F6770696F2E6300002F566F6C756D65732F446174612F5653636F64652F4749542F5653436F64655FFB
:402D40004F6E657468696E785061636B5F6D61634F532F50444C5F312E332E312E313439392F647269766572732F736F757263652F63795F6970635F6472762E6300000021
:402D80002F566F6C756D65732F446174612F5653636F64652F4749542F5653436F64655F4F6E657468696E785061636B5F6D61634F532F50444C5F312E332E312E313439EF
:402DC000392F647269766572732F736F757263652F63795F6970635F706970652E6300002F566F6C756D65732F446174612F5653636F64652F4749542F5653436F64655F6D
:402E00004F6E657468696E785061636B5F6D61634F532F50444C5F312E332E312E313439392F647269766572732F736F757263652F63795F737973696E742E63000000009D
:402E400008030008000000000000001000000008E0020000682E0010E0020008180900009C0C000848020000010001002000000000127A0000127A0000127A0000093D008E
:402E80000000A00F00127A00401F00000800000000000000F40500085C060008C4060008000000000000000000000000000000000000000000000000000000000000000033
:402EC00000000000000000000000000000000000000000000000000000000000000000000000000000000000000000000000000000000000000000000000000000000000D2
:402F00000000000000000000000000000000000000000000000000000000000000000000000000000000000000000000000000000000000000000000010000000000000090
:402F40000E33CDAB34126DE6ECDE05000B00000000000000000000000000000000000000000000000000000000000000000000000000000000000000000000000000000025
:402F80000000000000000000000000000000000000000000000000000000000000000000000000000000000000000000000000000000000000000000000000000000000011
:402FC00000000000000000000000000000000000000000000000000000000000000000000000000000000000000000000000000000000000000000000000000000000000D1
:403000000000000000000000000000000000000000000000000000000000000000000000000000000000000000000000000000000000000000000000000000000000000090
:403040000000000000000000000000000000000000000000000000000000000000000000000000000000000000000000000000000000000000000000000000000000000050
:403080000000000000000000000000000000000000000000000000000000000000000000000000000000000000000000000000000000000000000000000000000000000010
:4030C00000000000000000000000000000000000000000000000000000000000000000000000000000000000000000000000000000000000000000000000000000000000D0
:40310000000000000000000000000000000000000000000000000000000000000000000000000000000000000000000000000000000000000000000000000000000000008F
:40314000000000000000000000000000000000000000000000000000000000000000000000000000000000000000000000000000000000000000000000000000000000004F
:40318000000000000000000000000000000000000000000000000000000000000000000000000000000000000000000000000000000000000000000000000000000000000F
:4031C00000000000000000000000000000000000000000000000000000000000000000000000000000000000000000000000000000000000000000000000000000000000CF
:40320000000000000000000000000000000000000000000000000000000000000000000000000000000000000000000000000000000000000000000000000000000000008E
:40324000000000000000000000000000000000000000000000000000000000000000000000000000000000000000000000000000000000000000000000000000000000004E
:403280000000000000000000000000000000000000000000000000000000000000000000000000000000000000000000000000000000000000000000C00E0008B12900104E
:4032C00005030010E102001080B2C10050B3164B1B681A6AB3F8AC30C3EBC303D358002BF5DA124B3E221A60043341F61E721A60A3F584730622C3F8182521F07F41C3F85B
:403300001C15D3F81C35084B1B681A6AB3F8AC30C3EBC303134400225A60054BD3F81C35002BFADA704700BFBC0E00080401264000002640F8B5284B1B6893F82E30052B78
:4033400036D9254F3A68166AB2F8AC3003EB83031E4452684FF26003D458A4B200F0F0F905463B681968D3F88C208A58013C032C1AD8032A22D01868D3F880104258120EB9
:403380004058C0F30720531C00FB0333134800FB03F3134A1068134AA2FB00208009B3FBF0F08230FFF790FF284600F0D1F9F8BD4FF4E9710C4800F0D7F9C2E70B4A12785C
:4033C000002AD8D10822B2601968D3F88C208A58032AF9D0CFE700BFBC0E000840420F00F0020008D34D6210642C00100B0000164378FF2B00D0704710B500F0A1F90446C4
:40340000104B1B6893F82E30032B15D90D4B1B681A6AB3F8AC3003EB43031344DB685A68136843F001031360136813F0010FFBD1204600F08DF910BD4FF4E971024800F034
:4034400093F9E3E7BC0E0008642C00102DE9F84307468846524B1B6893F82E30012B3DD94F4B1B681C6AB3F8AC201444D3F8B050254493F84C30002B73D04A4B1B78002B5F
:4034800040D1474B1B6893F82E30052B2CD9444B19680A6AB1F8AC3003EB83031344D1F8B020D358002B74DB002000F055F93E4B984270D000233D4A12680121184600F021
:4034C00057F90646B0B9002000F046F9364B984212D0374B9E420FD80136F4E74FF4E971344800F041F9BBE74FF4E971314800F03BF9CCE7304C1CE02D4B9E424DD84FF0DA
:40350000010901E04FF0000900F01AF906462B4BD3F81C35002B0FDB274CB9F1000F05D00121002000F01CF90028F9D1304600F00FF92046BDE8F883214A0121204600F051
:403540001BF908B11C4CE8E74046FFF7BDFE37B12B68002BFCDB00F0F7F80446DDE7194CDBE700F0EDF80646154A0121204600F003F938B95FB12B68002BFCDB00F0E4F829
:40358000044600E00C4C304600F0E2F8D1E70D4CF9E7094CCDE7084CCBE7074CC9E700BFBC0E00080B00001601018800640E0008EF490200642C00100500520000002640F9
:4035C000540E000801005000F0B4594B1A68116AB2F8AC30C3EBC30319440B68002BFCDACB6843F00103CB60136AB2F8AC40C4EBC4042344DC6814F0020F2DD0DD68ADB280
:403600001668D2F880403459240A240404F47F04D2F88470F659360A44EA06642C43DC601468D2F88020A35823F47F4343F41063A3503F4A13681D68D3F884402B5923F48A
:403640007F4343F410632B5113681A68D3F880401459D3F88430D358354B1B681C6AB3F8AC20C2EBC2022244002454601C68D3F890301C4405E030BF236803F00303022B20
:403680000FD12C4A136943F0040313610128F2D120BF294B1B7803B120BF274B01221A70EAE70B68002BFCDA214B19680A6AB1F8AC30C3EBC3031344DA6812F0020F20D0CB
:4036C0000868D1F88010425822F47F42DB681B0C1B029BB213434350154B19680D68D1F884402B5923F47F43086AB1F8AC20C2EBC2020244D268120E43EA02232B510120AC
:4037000000E000200A4B1A68136AB2F8AC10C1EBC1010B44D96821F00101D960116AB2F8AC30C3EBC3030B4400225A60F0BC7047BC0E000800ED00E0700E0008000000005D
:403740005FF800F09B2600105FF800F0ED1B00105FF800F0A32600105FF800F0B12400105FF800F0352400105FF800F0C52500105FF800F0292100105FF800F0091F001075
:403780000000000000000000000000000000000000000000000000000000000000000000000000000000000000000000000000000000000000000000000000000000000009
:4037C00000000000000000000000000000000000000000000000000000000000000000000000000000000000000000000000000000000000000000000000000000000000C9
:0200000490303A
:02000000D6A781
:0200000490501A
:0C00000000000000000000000012D6A765
:00000001FF